{
  "contractName": "Poster",
  "abi": [
    {
      "inputs": [
        {
          "internalType": "address",
          "name": "_tokenAddress",
          "type": "address"
        },
        {
          "internalType": "uint256",
          "name": "_threshold",
          "type": "uint256"
        }
      ],
      "stateMutability": "nonpayable",
      "type": "constructor"
    },
    {
      "anonymous": false,
      "inputs": [
        {
          "indexed": true,
          "internalType": "address",
          "name": "user",
          "type": "address"
        },
        {
          "indexed": false,
          "internalType": "string",
          "name": "content",
          "type": "string"
        },
        {
          "indexed": false,
          "internalType": "bytes32",
          "name": "tagHash",
          "type": "bytes32"
        }
      ],
      "name": "NewPost",
      "type": "event"
    },
    {
      "anonymous": false,
      "inputs": [
        {
          "indexed": true,
          "internalType": "address",
          "name": "previousOwner",
          "type": "address"
        },
        {
          "indexed": true,
          "internalType": "address",
          "name": "newOwner",
          "type": "address"
        }
      ],
      "name": "OwnershipTransferred",
      "type": "event"
    },
    {
      "inputs": [],
      "name": "owner",
      "outputs": [
        {
          "internalType": "address",
          "name": "",
          "type": "address"
        }
      ],
      "stateMutability": "view",
      "type": "function",
      "constant": true
    },
    {
      "inputs": [],
      "name": "threshold",
      "outputs": [
        {
          "internalType": "uint256",
          "name": "",
          "type": "uint256"
        }
      ],
      "stateMutability": "view",
      "type": "function",
      "constant": true
    },
    {
      "inputs": [],
      "name": "tokenAddress",
      "outputs": [
        {
          "internalType": "address",
          "name": "",
          "type": "address"
        }
      ],
      "stateMutability": "view",
      "type": "function",
      "constant": true
    },
    {
      "inputs": [
        {
          "internalType": "address",
          "name": "_newOwner",
          "type": "address"
        }
      ],
      "name": "transferOwnership",
      "outputs": [],
      "stateMutability": "nonpayable",
      "type": "function"
    },
    {
      "inputs": [
        {
          "internalType": "address",
          "name": "_newTokenAddress",
          "type": "address"
        }
      ],
      "name": "setTokenAddress",
      "outputs": [],
      "stateMutability": "nonpayable",
      "type": "function"
    },
    {
      "inputs": [
        {
          "internalType": "uint256",
          "name": "_newThreshold",
          "type": "uint256"
        }
      ],
      "name": "setThreshold",
      "outputs": [],
      "stateMutability": "nonpayable",
      "type": "function"
    },
    {
      "inputs": [
        {
          "internalType": "string",
          "name": "content",
          "type": "string"
        },
        {
          "internalType": "string",
          "name": "tag",
          "type": "string"
        }
      ],
      "name": "post",
      "outputs": [],
      "stateMutability": "nonpayable",
      "type": "function"
    }
  ],
  "bytecode": "0x608060405234801561000f575f80fd5b5060405161065138038061065183398101604081905261002e9161008c565b5f80546001600160a01b03199081166001600160a01b038516178255600183905560028054339216821790556040519091907f8be0079c531659141344cd1fd0a4f28419497f9722a3daafe3b4186f6b6457e0908290a350506100c3565b5f806040838503121561009d575f80fd5b82516001600160a01b03811681146100b3575f80fd5b6020939093015192949293505050565b610581806100d05f395ff3fe608060405234801561000f575f80fd5b506004361061007a575f3560e01c80638da5cb5b116100585780638da5cb5b146100c2578063960bfe04146100ed5780639d76ea5814610100578063f2fde38b14610112575f80fd5b80630ae1b13d1461007e57806326a4e8d21461009357806342cde4e8146100a6575b5f80fd5b61009161008c3660046103e4565b610125565b005b6100916100a1366004610444565b610252565b6100af60015481565b6040519081526020015b60405180910390f35b6002546100d5906001600160a01b031681565b6040516001600160a01b0390911681526020016100b9565b6100916100fb366004610471565b61029d565b5f546100d5906001600160a01b031681565b610091610120366004610444565b6102cc565b5f80546040516370a0823160e01b81523360048201526001600160a01b03909116919082906370a0823190602401602060405180830381865afa15801561016e573d5f803e3d5ffd5b505050506040513d601f19601f820116820180604052508101906101929190610488565b90506001548110156101df5760405162461bcd60e51b81526020600482015260116024820152704e6f7420656e6f75676820746f6b656e7360781b60448201526064015b60405180910390fd5b5f836040516020016101f191906104c1565b604051602081830303815290604052805190602001209050336001600160a01b03167e29117975fec2fee16049ba5fae935ab94fd46833c521cf9258fa9507b08bbd86836040516102439291906104dc565b60405180910390a25050505050565b6002546001600160a01b0316331461027c5760405162461bcd60e51b81526004016101d690610516565b5f80546001600160a01b0319166001600160a01b0392909216919091179055565b6002546001600160a01b031633146102c75760405162461bcd60e51b81526004016101d690610516565b600155565b6002546001600160a01b031633146102f65760405162461bcd60e51b81526004016101d690610516565b600280546001600160a01b038381166001600160a01b0319831681179093556040519116919082907f8be0079c531659141344cd1fd0a4f28419497f9722a3daafe3b4186f6b6457e0905f90a35050565b634e487b7160e01b5f52604160045260245ffd5b5f82601f83011261036a575f80fd5b813567ffffffffffffffff8082111561038557610385610347565b604051601f8301601f19908116603f011681019082821181831017156103ad576103ad610347565b816040528381528660208588010111156103c5575f80fd5b836020870160208301375f602085830101528094505050505092915050565b5f80604083850312156103f5575f80fd5b823567ffffffffffffffff8082111561040c575f80fd5b6104188683870161035b565b9350602085013591508082111561042d575f80fd5b5061043a8582860161035b565b9150509250929050565b5f60208284031215610454575f80fd5b81356001600160a01b038116811461046a575f80fd5b9392505050565b5f60208284031215610481575f80fd5b5035919050565b5f60208284031215610498575f80fd5b5051919050565b5f5b838110156104b95781810151838201526020016104a1565b50505f910152565b5f82516104d281846020870161049f565b9190910192915050565b604081525f83518060408401526104fa81606085016020880161049f565b602083019390935250601f91909101601f191601606001919050565b6020808252818101527f4f776e61626c653a2063616c6c6572206973206e6f7420746865206f776e657260408201526060019056fea2646970667358221220f90cfa1283b7e6bc4411f4cb033b178ad6b35d2811623ae6fab55b4dc6a9d1c964736f6c63430008140033",
  "immutableReferences": {},
  "source": "// SPDX-License-Identifier: MIT\npragma solidity >=0.4.21 <0.9.0;\n\nimport \"@openzeppelin/contracts/token/ERC20/IERC20.sol\";\n\ncontract Poster {\n    address public tokenAddress;\n    uint256 public threshold;\n\n    address public owner;\n\n    event OwnershipTransferred(address indexed previousOwner, address indexed newOwner);\n\n    event NewPost(address indexed user, string content, bytes32 tagHash);\n\n    constructor(address _tokenAddress, uint256 _threshold) public {\n        // 4:     \n        tokenAddress = _tokenAddress;\n        threshold = _threshold;\n\n        // 4:  \n        owner = msg.sender;\n        emit OwnershipTransferred(address(0), owner);\n    }\n\n    // === 4:   ===\n    modifier onlyOwner() {\n        require(owner == msg.sender, \"Ownable: caller is not the owner\");\n        _;\n    }\n\n    // === 4:   (    MetaMask-) ===\n    function transferOwnership(address _newOwner) public onlyOwner {\n        address oldOwner = owner;\n        owner = _newOwner;\n        emit OwnershipTransferred(oldOwner, _newOwner);\n    }\n\n    // === 4:   ,   owner ===\n    function setTokenAddress(address _newTokenAddress) public onlyOwner {\n        tokenAddress = _newTokenAddress;\n    }\n\n    // === 4:  ,   owner ===\n    function setThreshold(uint256 _newThreshold) public onlyOwner {\n        threshold = _newThreshold;\n    }\n\n    // ===  post  4 ===\n    function post(string memory content, string memory tag) public {\n        // 4: -\n        IERC20 token = IERC20(tokenAddress);\n        uint256 balance = token.balanceOf(msg.sender);\n        if (balance < threshold) {\n            revert(\"Not enough tokens\");\n        }\n\n        bytes32 tagHash = keccak256(abi.encodePacked(tag));\n        emit NewPost(msg.sender, content, tagHash);\n    }\n}\n",
  "sourcePath": "/home/vik/token-gated-poster/contracts/Poster.sol",
  "compiler": {
    "name": "solc",
    "version": "0.8.20+commit.a1b79de6.Emscripten.clang"
  },
  "schemaVersion": "3.4.16",
  "updatedAt": "2025-12-04T17:39:51.206Z",
  "networkType": "ethereum",
  "devdoc": {
    "kind": "dev",
    "methods": {},
    "version": 1
  },
  "userdoc": {
    "kind": "user",
    "methods": {},
    "version": 1
  }
}