{
  "contractName": "Poster",
  "abi": [
    {
      "anonymous": false,
      "inputs": [
        {
          "indexed": true,
          "internalType": "uint256",
          "name": "id",
          "type": "uint256"
        },
        {
          "indexed": true,
          "internalType": "address",
          "name": "user",
          "type": "address"
        },
        {
          "indexed": false,
          "internalType": "string",
          "name": "content",
          "type": "string"
        },
        {
          "indexed": true,
          "internalType": "string",
          "name": "tag",
          "type": "string"
        }
      ],
      "name": "NewPost",
      "type": "event"
    },
    {
      "inputs": [
        {
          "internalType": "string",
          "name": "content",
          "type": "string"
        },
        {
          "internalType": "string",
          "name": "tag",
          "type": "string"
        }
      ],
      "name": "post",
      "outputs": [],
      "stateMutability": "nonpayable",
      "type": "function"
    },
    {
      "inputs": [
        {
          "internalType": "uint256",
          "name": "id",
          "type": "uint256"
        },
        {
          "internalType": "string",
          "name": "newContent",
          "type": "string"
        },
        {
          "internalType": "string",
          "name": "newTag",
          "type": "string"
        }
      ],
      "name": "updatePost",
      "outputs": [],
      "stateMutability": "nonpayable",
      "type": "function"
    },
    {
      "inputs": [
        {
          "internalType": "uint256",
          "name": "id",
          "type": "uint256"
        }
      ],
      "name": "deletePost",
      "outputs": [],
      "stateMutability": "nonpayable",
      "type": "function"
    },
    {
      "inputs": [
        {
          "internalType": "uint256",
          "name": "id",
          "type": "uint256"
        }
      ],
      "name": "getPost",
      "outputs": [
        {
          "components": [
            {
              "internalType": "uint256",
              "name": "id",
              "type": "uint256"
            },
            {
              "internalType": "address",
              "name": "user",
              "type": "address"
            },
            {
              "internalType": "string",
              "name": "content",
              "type": "string"
            },
            {
              "internalType": "string",
              "name": "tag",
              "type": "string"
            },
            {
              "internalType": "uint256",
              "name": "timestamp",
              "type": "uint256"
            }
          ],
          "internalType": "struct Poster.Post",
          "name": "",
          "type": "tuple"
        }
      ],
      "stateMutability": "view",
      "type": "function",
      "constant": true
    },
    {
      "inputs": [],
      "name": "getAllPosts",
      "outputs": [
        {
          "components": [
            {
              "internalType": "uint256",
              "name": "id",
              "type": "uint256"
            },
            {
              "internalType": "address",
              "name": "user",
              "type": "address"
            },
            {
              "internalType": "string",
              "name": "content",
              "type": "string"
            },
            {
              "internalType": "string",
              "name": "tag",
              "type": "string"
            },
            {
              "internalType": "uint256",
              "name": "timestamp",
              "type": "uint256"
            }
          ],
          "internalType": "struct Poster.Post[]",
          "name": "",
          "type": "tuple[]"
        }
      ],
      "stateMutability": "view",
      "type": "function",
      "constant": true
    }
  ],
  "bytecode": "0x6080604052600160005534801561001557600080fd5b50610cd6806100256000396000f3fe608060405234801561001057600080fd5b50600436106100575760003560e01c8063094cd5ee1461005c5780630ae1b13d14610071578063305611001461008457806340731c24146100a257806366d1cac9146100c2575b600080fd5b61006f61006a366004610804565b6100d5565b005b61006f61007f3660046108c0565b6101ae565b61008c6102e9565b60405161009991906109d5565b60405180910390f35b6100b56100b0366004610804565b61050f565b6040516100999190610a37565b61006f6100d0366004610a51565b6106b2565b600081815260016020819052604090912001546001600160a01b031633146101345760405162461bcd60e51b815260206004820152600d60248201526c139bdd081e5bdd5c881c1bdcdd609a1b60448201526064015b60405180910390fd5b60008181526001602052604081205490036101615760405162461bcd60e51b815260040161012b90610abe565b6000818152600160208190526040822082815590810180546001600160a01b0319169055906101936002830182610776565b6101a1600383016000610776565b6004820160009055505050565b6000805481806101bd83610aeb565b909155506040805160a0810182528281523360208083019182528284018881526060840188905242608085015260008681526001928390529490942083518155915190820180546001600160a01b0319166001600160a01b0390921691909117905591519293509160028201906102349082610b9b565b50606082015160038201906102499082610b9b565b5060809190910151600490910155600280546001810182556000919091527f405787fa12a823e0f2b7631cc41b3ba8828b3321ca811111fa75cd3aa3bb5ace0181905560405161029a908390610c5b565b6040518091039020336001600160a01b0316827fcd08ae58cc87c87db6289d825bf8f195d2ee3c0cc701d78878fedf093b930092866040516102dc9190610c77565b60405180910390a4505050565b60025460609060008167ffffffffffffffff81111561030a5761030a61081d565b60405190808252806020026020018201604052801561034357816020015b6103306107b3565b8152602001906001900390816103285790505b50905060005b828110156105085760006002828154811061036657610366610c8a565b60009182526020808320909101548083526001808352604093849020845160a08101865281548152918101546001600160a01b03169382019390935260028301805492955090938401916103b990610b12565b80601f01602080910402602001604051908101604052809291908181526020018280546103e590610b12565b80156104325780601f1061040757610100808354040283529160200191610432565b820191906000526020600020905b81548152906001019060200180831161041557829003601f168201915b5050505050815260200160038201805461044b90610b12565b80601f016020809104026020016040519081016040528092919081815260200182805461047790610b12565b80156104c45780601f10610499576101008083540402835291602001916104c4565b820191906000526020600020905b8154815290600101906020018083116104a757829003601f168201915b505050505081526020016004820154815250508383815181106104e9576104e9610c8a565b602002602001018190525050808061050090610aeb565b915050610349565b5092915050565b6105176107b3565b60008281526001602052604081205490036105445760405162461bcd60e51b815260040161012b90610abe565b600082815260016020818152604092839020835160a08101855281548152928101546001600160a01b031691830191909152600281018054929391929184019161058d90610b12565b80601f01602080910402602001604051908101604052809291908181526020018280546105b990610b12565b80156106065780601f106105db57610100808354040283529160200191610606565b820191906000526020600020905b8154815290600101906020018083116105e957829003601f168201915b5050505050815260200160038201805461061f90610b12565b80601f016020809104026020016040519081016040528092919081815260200182805461064b90610b12565b80156106985780601f1061066d57610100808354040283529160200191610698565b820191906000526020600020905b81548152906001019060200180831161067b57829003601f168201915b505050505081526020016004820154815250509050919050565b600083815260016020819052604090912001546001600160a01b0316331461070c5760405162461bcd60e51b815260206004820152600d60248201526c139bdd081e5bdd5c881c1bdcdd609a1b604482015260640161012b565b60008381526001602052604081205490036107395760405162461bcd60e51b815260040161012b90610abe565b60008381526001602052604090206002016107548382610b9b565b5060008381526001602052604090206003016107708282610b9b565b50505050565b50805461078290610b12565b6000825580601f10610792575050565b601f0160209004906000526020600020908101906107b091906107eb565b50565b6040518060a001604052806000815260200160006001600160a01b031681526020016060815260200160608152602001600081525090565b5b8082111561080057600081556001016107ec565b5090565b60006020828403121561081657600080fd5b5035919050565b634e487b7160e01b600052604160045260246000fd5b600082601f83011261084457600080fd5b813567ffffffffffffffff8082111561085f5761085f61081d565b604051601f8301601f19908116603f011681019082821181831017156108875761088761081d565b816040528381528660208588010111156108a057600080fd5b836020870160208301376000602085830101528094505050505092915050565b600080604083850312156108d357600080fd5b823567ffffffffffffffff808211156108eb57600080fd5b6108f786838701610833565b9350602085013591508082111561090d57600080fd5b5061091a85828601610833565b9150509250929050565b60005b8381101561093f578181015183820152602001610927565b50506000910152565b60008151808452610960816020860160208601610924565b601f01601f19169290920160200192915050565b8051825260018060a01b0360208201511660208301526000604082015160a060408501526109a560a0850182610948565b9050606083015184820360608601526109be8282610948565b915050608083015160808501528091505092915050565b6000602080830181845280855180835260408601915060408160051b870101925083870160005b82811015610a2a57603f19888603018452610a18858351610974565b945092850192908501906001016109fc565b5092979650505050505050565b602081526000610a4a6020830184610974565b9392505050565b600080600060608486031215610a6657600080fd5b83359250602084013567ffffffffffffffff80821115610a8557600080fd5b610a9187838801610833565b93506040860135915080821115610aa757600080fd5b50610ab486828701610833565b9150509250925092565b602080825260139082015272141bdcdd08191bd95cc81b9bdd08195e1a5cdd606a1b604082015260600190565b600060018201610b0b57634e487b7160e01b600052601160045260246000fd5b5060010190565b600181811c90821680610b2657607f821691505b602082108103610b4657634e487b7160e01b600052602260045260246000fd5b50919050565b601f821115610b9657600081815260208120601f850160051c81016020861015610b735750805b601f850160051c820191505b81811015610b9257828155600101610b7f565b5050505b505050565b815167ffffffffffffffff811115610bb557610bb561081d565b610bc981610bc38454610b12565b84610b4c565b602080601f831160018114610bfe5760008415610be65750858301515b600019600386901b1c1916600185901b178555610b92565b600085815260208120601f198616915b82811015610c2d57888601518255948401946001909101908401610c0e565b5085821015610c4b5787850151600019600388901b60f8161c191681555b5050505050600190811b01905550565b60008251610c6d818460208701610924565b9190910192915050565b602081526000610a4a6020830184610948565b634e487b7160e01b600052603260045260246000fdfea2646970667358221220d876b49d59add514dfe139854f32a7548e13ea70992681e1e24ac00d0cc7bdea64736f6c63430008130033",
  "immutableReferences": {},
  "source": "// SPDX-License-Identifier: MIT\npragma solidity ^0.8.0;\n\ncontract Poster {\n    struct Post {\n        uint256 id;\n        address user;\n        string content;\n        string tag;\n        uint256 timestamp;\n    }\n\n    uint256 private nextId = 1;\n    mapping(uint256 => Post) private posts;\n    uint256[] private postIds;\n\n    event NewPost(uint256 indexed id, address indexed user, string content, string indexed tag);\n\n    function post(string memory content, string memory tag) public {\n        uint256 id = nextId++;\n\n        posts[id] = Post(id, msg.sender, content, tag, block.timestamp);\n        postIds.push(id);\n\n        emit NewPost(id, msg.sender, content, tag);\n    }\n\n    function updatePost(uint256 id, string memory newContent, string memory newTag) public {\n        require(posts[id].user == msg.sender, \"Not your post\");\n        require(posts[id].id != 0, \"Post does not exist\");\n\n        posts[id].content = newContent;\n        posts[id].tag = newTag;\n    }\n\n    function deletePost(uint256 id) public {\n        require(posts[id].user == msg.sender, \"Not your post\");\n        require(posts[id].id != 0, \"Post does not exist\");\n\n        delete posts[id];\n    }\n\n    function getPost(uint256 id) public view returns (Post memory) {\n        require(posts[id].id != 0, \"Post does not exist\");\n        return posts[id];\n    }\n\n    function getAllPosts() public view returns (Post[] memory) {\n        uint256 count = postIds.length;\n        Post[] memory result = new Post[](count);\n\n        for (uint256 i = 0; i < count; i++) {\n            uint256 id = postIds[i];\n            result[i] = posts[id];\n        }\n\n        return result;\n    }\n}\n",
  "sourcePath": "/home/vik/poster-contract/contracts/Poster.sol",
  "compiler": {
    "name": "solc",
    "version": "0.8.19+commit.7dd6d404.Emscripten.clang"
  },
  "schemaVersion": "3.4.16",
  "updatedAt": "2025-12-01T16:27:49.418Z",
  "networkType": "ethereum",
  "devdoc": {
    "kind": "dev",
    "methods": {},
    "version": 1
  },
  "userdoc": {
    "kind": "user",
    "methods": {},
    "version": 1
  }
}